:020000040000FA
:060000000A128A11E22F32
:100ADC0083160313860187010814881408158815DA
:100AEC000816080005340034043400340334003490
:100AFC0002340034013400340A128A116E250A12B1
:100B0C008A110A128A1108260A128A11872D831259
:100B1C000313081D942DF201F20A0800881D080029
:100B2C000A128A11A82508007208031D0800053056
:100B3C007106031DA32DF10108000130F90079089D
:100B4C00F1070800F201F801F701F601F501F401D3
:100B5C00F301F101F00183120313AA01AB01071396
:100B6C0008007E088A007F088200B7250A128A11C5
:100B7C008000840A04087D0603190034FF0A031957
:100B8C00FE0ABB2DFB007B08840000087906031DC0
:100B9C00D32D7B088400800108000130FA007B080B
:100BAC0084007A08800708007208031D080083126D
:100BBC000313081CEA2D2E08031DEA2DAE01AE0A04
:100BCC000A128A1120260800081808002E03031D9B
:100BDC000800AE0108007208031D080083120313FD
:100BEC00881C012E7008031D012EF001F00A0A1258
:100BFC008A119A250800881808007003031D080044
:100C0C00F00108000A128A118D250A128A110A12A3
:100C1C008A11F1250A128A110A128A11DA250A128E
:100C2C008A110A128A11D1260A128A110A128A1101
:100C3C003A270800572E0930FC007C08F900783060
:100C4C000A128A11C82508000930FC007C08F9003A
:100C5C0077300A128A11C82508000530FC007C0880
:100C6C00F90076300A128A11C82508000930FC00F8
:100C7C007C08F90075300A128A11C8250800053065
:100C8C00FC007C08F90074300A128A11C82508008F
:100C9C000930FC007C08F90073300A128A11C8254F
:100CAC0008007108FC00FD017D08003A03195F2E55
:100CBC00732E7C08003A0319212E013A03192A2EAF
:100CCC00033A0319332E013A03193C2E073A031940
:100CDC00452E013A03194E2E732E0800FB00A82E48
:100CEC003F3083120313860008000630831203136F
:100CFC00860008005B3083120313860008004F3017
:100D0C0083120313860008006630831203138600D7
:100D1C0008006D3083120313860008007D308312A7
:100D2C0003138600080007308312031386000800A3
:100D3C007F3083120313860008006F308312031375
:100D4C00860008007B08F900FA017A08003A0319BA
:100D5C00B02ED02E7908003A0319762E013A0319D9
:100D6C007B2E033A0319802E013A0319852E073A7C
:100D7C0003198A2E013A03198F2E033A0319942E64
:100D8C00013A0319992E0F3A03199E2E013A0319B1
:100D9C00A32ED02E08007208031908007808031D32
:100DAC00EF2E7708031DEF2E7608031DEF2E750826
:100DBC00031DEF2E7408031DEF2E7308031DEF2E79
:100DCC008312031307130A128A11A8250A128A1117
:100DDC00F22E8312031307170A30831203132A0609
:100DEC002B040319002F0130AA070318AB0A00309B
:100DFC00AB070800AA01AB0173080319082F0130D7
:100E0C00F30208000930F9007908F300740803199B
:100E1C00122F0130F40208000530F9007908F400B3
:100E2C00750803191C2F0130F50208000930F90070
:100E3C007908F50076080319262F0130F602080010
:100E4C000530F9007908F60077080319302F0130C6
:100E5C00F70208000930F9007908F700780803193F
:100E6C0008000130F80208008312031386010630D3
:100E7C002C062D04031D512F0710871407158715F9
:100E8C0007168716AC01AD0178080A128A11742670
:100E9C000A128A11572F0130AC070318AD0A003023
:100EAC00AD0706308312031328062904031D6D2F8A
:100EBC00071487100715871507168716A801A901AF
:100ECC0077080A128A1174260A128A11732F0130BC
:100EDC00A8070318A90A0030A907063083120313C8
:100EEC0026062704031D892F07148714071187155D
:100EFC0007168716A601A70176080A128A1174260E
:100F0C000A128A118F2F0130A6070318A70A003086
:100F1C00A70706308312031324062504031DA52FEF
:100F2C00071487140715871107168716A401A50146
:100F3C0075080A128A1174260A128A11AB2F013015
:100F4C00A4070318A50A0030A50706308312031363
:100F5C0022062304031DC12F0714871407158715B8
:100F6C0007128716A201A30174080A128A117426AB
:100F7C000A128A11C72F0130A2070318A30A0030E6
:100F8C00A30706308312031320062104031DDB2F55
:100F9C00071487140715871507168712A001A101DE
:100FAC0073080A128A11742608000130A00703186E
:100FBC00A10A0030A107080083132A30FD00053078
:100FCC00FE007830FF00203084000A128A11BB2505
:100FDC00AA01AB01AC01AD01AE01F001F101F201CE
:100FEC00F301F401F501F601F701F80183010A128E
:040FFC008A11822DA7
:00000001FF
